:0400000053EF00F0CA
:100008001182FACF01F0FBCF02F0E9CF03F0EACF7B
:1000180004F0E1CF05F0E2CF06F0D9CF07F0DACF50
:1000280008F0F3CF09F0F4CF0AF0F6CF0BF0F7CFD2
:100038000CF0F8CF0DF0F5CF0EF0F28E9EAAFED799
:10004800AECF10F00F0E1018D8A402D081889E9A57
:10005800870E1018D8A402D081989E9A000EAE6E12
:10006800F29E0EC0F5FF0DC0F8FF0CC0F7FF0BC0E5
:10007800F6FF0AC0F4FF09C0F3FF08C0DAFF07C0A3
:10008800D9FF06C0E2FF05C0E1FF04C0EAFF03C0D4
:10009800E9FF02C0FBFF01C0FAFF1192110073EFE4
:1000A80000F06C0ED36E93988198190EAF6EB896C7
:1000B800AC84AC98AC9CB89892869284938AAC8AAB
:1000C800AB8EAB88F28EF28C9D8AD59CD59AD5964C
:1000D800D594D582D590000EAE6E53EF00F0106A1D
:0C00E8000F6A11901192000155EF00F01A
:020000040020DA
:08000000FFFFFFFFFFFFFFFF00
:020000040030CA
:0E000000FF091F1E0E8181FF03C003E00340B5
:00000001FF
