:0400000052EF00F0CB
:100008002482FACF01F0FBCF02F0E9CF03F0EACF68
:1000180004F0E1CF05F0E2CF06F0D9CF07F0DACF50
:1000280008F0F3CF09F0F4CF0AF0F6CF0BF0F7CFD2
:100038000CF0F8CF0DF0F5CF0EF01A2A1A50010D7A
:10004800140EF324D96E000EF420DA6EAECFDFFF63
:10005800040E1A18D8A402D02B0E236E070E236E96
:100068000EC0F5FF0DC0F8FF0CC0F7FF0BC0F6FF80
:100078000AC0F4FF09C0F3FF08C0DAFF07C0D9FFC0
:1000880006C0E2FF05C0E1FF04C0EAFF03C0E9FFC4
:1000980002C0FBFF01C0FAFF24921100B4EF00F088
:1000A8006C0ED36E93988198190EAF6EB896AC8487
:1000B8009286AC98AB8EAB88F28EF28C9D8A010E3C
:1000C800236ED59CD59AD596D594D582D5902AD02D
:1000D8009EAAFED7AECF19F00F0E1918D8A408D0D3
:1000E8008188000E106E030E0F6E99EC00F0819857
:1000F800870E1918D8A416D08188000E106E010E2C
:100108000F6E99EC00F08198000E106E010E0F6EC4
:1001180099EC00F08188000E106E010E0F6E99ECBC
:1001280000F08198000EAE6ED3D7000E136E000E4D
:10013800126E0BD0F294850ED76EED0ED66ED58E5C
:10014800F2A4FED7D59E124A132A0F50125C135000
:10015800800A116E1050800A1158D8B01200EAD7E0
:1001680000EE14F00F0EEE6AE806FDE124902492EA
:06017800000154EF00F04D
:020000040020DA
:08000000FFFFFFFFFFFFFFFF00
:020000040030CA
:0E000000FF091F1E0E8181FF03C003E00340B5
:00000001FF
