:020000040000FA
:040000001BEF00F002
:020004000000FA
:0200080008D01E
:0200180001D015
:06001A001100D8CF81F0B7
:10002000E8CF80F0E0CF82F082C0E0FF80C0E8FF40
:1000300081C0D8FF10004C0ED36E93929390939A88
:10004000938881928190819AD59CD59AD596D584B2
:10005000D580D592F294F00ED76EBC0ED66E81A8E4
:1000600009D000D081828180818A3CEC00F03CEC98
:1000700000F0F5D78182F3D7D58EF2A4FED7D59EB6
:0200800012006C
:020000040030CA
:0100010009F5
:010003001EDE
:0200000400F00A
:1000000054657374204461746100010203040500A7
:00000001FF
