:0400000042EF00F0DB
:100008001682FACF01F0FBCF02F0E9CF03F0EACF76
:1000180004F0E1CF05F0E2CF06F0D9CF07F0DACF50
:1000280008F0F3CF09F0F4CF0AF0F6CF0BF0F7CFD2
:100038000CF0F8CF0DF0F5CF0EF0808AAECF15F0AA
:100048000EC0F5FF0DC0F8FF0CC0F7FF0BC0F6FFA0
:100058000AC0F4FF09C0F3FF08C0DAFF07C0D9FFE0
:1000680006C0E2FF05C0E1FF04C0EAFF03C0E9FFE4
:1000780002C0FBFF01C0FAFF16921100AAEF00F0C0
:100088006C0ED36E93988198190EAF6EB896AC84A7
:10009800AC98AC9CB89892869284938AAC8AAB8EC2
:1000A800AB88F28EF28C9D8A9D98D59CD59AD59670
:1000B800D594D582D5902CD09EAAFED7AECF15F078
:1000C8000F0E1518D8A409D08188000E106E030EE3
:1000D8000F6E8FEC00F081989E98870E1518D8A4A3
:1000E80017D08188000E106E010E0F6E8FEC00F095
:1000F8008198000E106E010E0F6E8FEC00F0818853
:10010800000E106E010E0F6E8FEC00F081989E9815
:10011800000EAE6ED1D7000E136E000E126E0BD00D
:10012800F294850ED76EED0ED66ED58EF2A4FED75C
:10013800D59E124A132A0F50125C1350800A116E72
:100148001050800A1158D8B01200EAD7156A146AFC
:0A01580016901692000144EF00F02B
:020000040020DA
:08000000FFFFFFFFFFFFFFFF00
:020000040030CA
:0E000000FF091F1E0E8181FF03C003E00340B5
:00000001FF
