:020000040000FA
:040000001BEF00F002
:020004000000FA
:0200080008D01E
:0200180001D015
:06001A001100D8CF81F0B7
:10002000E8CF80F0E0CF82F082C0E0FF80C0E8FF40
:1000300081C0D8FF10007C0ED36E93929288D58E2B
:10004000D58CD58AD588D586F28EF28AD59EFA0EC1
:10005000D66ED58EF2A40ED000D081823CEC00F09A
:100060003CEC00F03CEC00F03CEC00F03CEC00F030
:100070008192F0D78192EED7C80E846FC80E836F3D
:0E008000000000008307FCE18407F8E1550E44
:020000040030CA
:0100010009F5
:010003001EDE
:0200000400F00A
:1000000054657374204461746100010203040500A7
:00000001FF
