:04000000AEEF0FF060
:101F5C00066A0001CDEF0FF0000E056E000E046E48
:101F6C000BD0F294850ED76EED0ED66ED58EF2A4F4
:101F7C00FED7D59E044A052A0150045C0550800A00
:101F8C00036E0250800A0358D8B01200EAD76C0EC8
:101F9C00D36E93809382190EAF6EB896AC84AC98C6
:101FAC00AC9CB898AB8EAC8AD59CD59AD596D5946A
:101FBC00D582D5900CD0ACA2FED7450EAD6EACA29E
:101FCC00FED7000E026E010E016EB2EC0FF081B264
:101FDC0002D00F0E066E81A202D0870E066E81A073
:101FEC00F6D706C0ADFF000E026E010E016EB2EC0C
:041FFC000FF0EDD71E
:020000040020DA
:08000000FFFFFFFFFFFFFFFF00
:020000040030CA
:0E000000FF091F1E0E0181FF03C003E0034035
:00000001FF
