:0400000047EF00F0D6
:100008000F82FACF01F0FBCF02F0E9CF03F0EACF7D
:1000180004F0E1CF05F0E2CF06F0D9CF07F0DACF50
:1000280008F0F3CF09F0F4CF0AF0F6CF0BF0F7CFD2
:100038000CF0F8CF0DF0F5CF0EF0F2A206D08AB88A
:1000480002D08A8801D08A98F2920EC0F5FF0DC0BE
:10005800F8FF0CC0F7FF0BC0F6FF0AC0F4FF09C099
:10006800F3FF08C0DAFF07C0D9FF06C0E2FF05C0EA
:10007800E1FF04C0EAFF03C0E9FF02C0FBFF01C0C3
:10008800FAFF0F92110055EF00F0D38CD38AD38872
:10009800939892808198F28EF288F18CF282F28E97
:0C00A800FFD70F900F92000149EF00F00D
:020000040020DA
:08000000FFFFFFFFFFFFFFFF00
:020000040030CA
:0E000000FF891F1E0E8181FF03C003E0034035
:00000001FF
