:020000040000FA
:040000001BEF00F002
:020004000000FA
:0200080008D01E
:0200180001D015
:06001A001100D8CF81F0B7
:10002000E8CF80F0E0CF82F082C0E0FF80C0E8FF40
:1000300081C0D8FF1000030E856F7C0ED36E9392A3
:10004000928880A842D000D0818269EC00F069ECEF
:1000500000F069EC00F069EC00F069EC00F069EC8C
:1000600000F069EC00F069EC00F069EC00F069EC7C
:1000700000F0819269EC00F069EC00F069EC00F0AE
:1000800069EC00F069EC00F069EC00F069EC00F05C
:1000900069EC00F069EC00F069EC00F069EC00F04C
:1000A00069EC00F069EC00F069EC00F069EC00F03C
:1000B00069EC00F069EC00F069EC00F069EC00F02C
:1000C00069EC00F08507C0E1BCD78192BAD721EF77
:1000D00000F0C80E846FC80E836F00000000830715
:0800E000FCE18407F8E11200C5
:020000040030CA
:0100010009F5
:010003001EDE
:0200000400F00A
:1000000054657374204461746100010203040500A7
:00000001FF
