:04000000AEEF0FF060
:101F5C00026A016A0001B3EF0FF06C0ED36E93921C
:101F6C00938A8192D6CF03F092969392C1929282E9
:101F7C00C09EC198C296C284C09AC098C096C084B4
:101F8C00C092C090C280D59AD586D594D582D59072
:101F9C00D6CF03F0F28EF288F18CF292F28C000E16
:101FAC00026E000E016E000ED66EC28201D0D59E5E
:101FBC00C2B2FDD7180EC46401D0D58EE50EC46430
:101FCC0001D0D59E0350D8B405D0560E036002D074
:101FDC0080868192540E036402D08096818281AAFD
:101FEC0000EF00F0000ED66E000E036E809681920C
:041FFC0000EF00F002
:020000040020DA
:08000000FFFFFFFFFFFFFFFF00
:020000040030CA
:0E000000FF091F1E0E8181FF03C003E00340B5
:00000001FF
