:020000040000FA
:040000001BEF00F002
:020004000000FA
:0200080008D01E
:0200180001D015
:06001A001100D8CF81F0B7
:10002000E8CF80F0E0CF82F082C0E0FF80C0E8FF40
:1000300081C0D8FF100093929398939A93808192F5
:100040008198819A81B001D010D0818239EC00F082
:100050008192818839EC00F039EC00F039EC00F045
:100060008198818A39EC00F0819A81928198819AF5
:10007000E9D7C60E846F640E836F00000000000095
:0A0080008307FBE18407F7E1550E4A
:020000040030CA
:0100010000FE
:0200000400F00A
:1000000054657374204461746100010203040500A7
:00000001FF
